:02000000412994
:10000800FF00030E8301AB000A08AC008A017008E8
:10001800A6007408A5007808A4007A08A3007B0845
:10002800A2007C08A1007D08A0008B1C3228870153
:1000380088010630FB001330FC00AD30FD00FD0BDD
:100048002328FC0B2328FB0B23280000000086181C
:100058002E28BA20061C31288B1019282608F000F3
:100068002508F4002408F8002308FA002208FB00F9
:100078002108FC002008FD002C088A002B0E8300B4
:06008800FF0E7F0E0900CF
:10008E0083120313FD01F80170080319003474067E
:10009E00FA00FA1BFD09FB01F41F5728F409F40AB4
:1000AE00F01F5B28F009F00A70087404FA00FA1BBE
:1000BE007F287408F802F00D700DF80D7408F8071B
:1000CE00F00D0630FC00700DF80D74087018F80273
:1000DE00701CF807F00DFC0B6A28701CF8077B18D3
:1000EE008D28FD1F0034F009F00AF809F80A0034D3
:1000FE00F41F8A28F01B87287008F800F001782872
:10010E00F001F00A0034F009FB0A6028F80A7408BE
:10011E007802031D7828F801F00AF01F7828FF34C2
:02012E000800C7
:100130000A3083120313F4002D08F00047207008E2
:10014000AE000A30F4002D08F00047207808F000D7
:100150000510851005118511700887002E0888008C
:100160001A30FC00F830FD00FD0BB428FC0BB4285D
:040170000000080083
:1001740083120313861FF8280330A7008030270654
:10018400F0008030003A7002031CF5280611861135
:10019400061606178613A801323028020318F3281E
:1001A4000A30F4002708F00047207008AF000A3036
:1001B400F4002708F00047207808F00005108510A7
:1001C40005118511700887002F0888001A30FC007B
:1001D400F830FD00FD0BEC28FC0BEC280000A80A0D
:1001E400CE28A703C028861606133329061E3329F2
:1001F4000330A70080302706F0008030003A7002F8
:10020400031C312986120613861786150612A801C7
:100214003230280203182F290A30F4002708F0008E
:1002240047207008AF000A30F4002708F000472088
:100234007808F000051085100511851170088700F5
:100244002F0888001A30FC00F830FD00FD0B282927
:10025400FC0B28290000A80A0A29A703FC28061574
:1002640086110230FB000430FC00BA30FD00FD0BA7
:0E0274003929FC0B3929FB0B39290000080041
:100282000730831603139F00061486140B168B1770
:10029200011381130510831205148316851083122E
:1002A2008514831605118312051583168511831291
:1002B20085158316870183128701831688018312AD
:1002C20088010330831686008312061186110612F6
:1002D2008612061386130230FB000430FC00BA308B
:1002E200FD00FD0B7229FC0B7229FB0B7229000029
:1002F2001730A70080302706F0008030043A7002E1
:10030200031C9529061186110616861606138613F6
:10031200A80132302802031893292708AD0098203B
:10032200A80A8A29A7037B290330A7008030270661
:10033200F0008030003A7002031CB12906118615C4
:100342000612861606138613A801323028020318F5
:10035200AF292708AD009820A80AA629A703972944
:100362000F30A70080302706F0008030043A700278
:10037200031CCD290615861106128612061386174E
:10038200A801323028020318CB292708AD00982093
:10039200A80AC229A703B3290330A7008030270681
:1003A200F0008030003A7002031CE929061586111C
:1003B2000612861206178613A80132302802031885
:1003C200E7292708AD009820A80ADE29A703CF292C
:0403D2007929EA2972
:02400E004A2F37
:00000001FF
